{
  "_format": "hh-sol-artifact-1",
  "contractName": "Guestbook",
  "sourceName": "contracts/Guestbook.sol",
  "abi": [
    {
      "inputs": [
        {
          "internalType": "string",
          "name": "_message",
          "type": "string"
        }
      ],
      "name": "addEntry",
      "outputs": [],
      "stateMutability": "nonpayable",
      "type": "function"
    },
    {
      "inputs": [
        {
          "internalType": "uint256",
          "name": "",
          "type": "uint256"
        }
      ],
      "name": "entries",
      "outputs": [
        {
          "internalType": "address",
          "name": "sender",
          "type": "address"
        },
        {
          "internalType": "string",
          "name": "message",
          "type": "string"
        }
      ],
      "stateMutability": "view",
      "type": "function"
    },
    {
      "inputs": [],
      "name": "getEntries",
      "outputs": [
        {
          "components": [
            {
              "internalType": "address",
              "name": "sender",
              "type": "address"
            },
            {
              "internalType": "string",
              "name": "message",
              "type": "string"
            }
          ],
          "internalType": "struct Guestbook.Entry[]",
          "name": "",
          "type": "tuple[]"
        }
      ],
      "stateMutability": "view",
      "type": "function"
    }
  ],
  "bytecode": "0x608060405234801561001057600080fd5b50610650806100206000396000f3fe608060405234801561001057600080fd5b50600436106100415760003560e01c806317be85c31461004657806317ce42bd14610064578063b30906d414610079575b600080fd5b61004e61009a565b60405161005b9190610348565b60405180910390f35b6100776100723660046103db565b6101a0565b005b61008c61008736600461048c565b610240565b60405161005b9291906104a5565b60606000805480602002602001604051908101604052809291908181526020016000905b82821015610197576000848152602090819020604080518082019091526002850290910180546001600160a01b031682526001810180549293919291840191610106906104d1565b80601f0160208091040260200160405190810160405280929190818152602001828054610132906104d1565b801561017f5780601f106101545761010080835404028352916020019161017f565b820191906000526020600020905b81548152906001019060200180831161016257829003601f168201915b505050505081525050815260200190600101906100be565b50505050905090565b60408051808201909152338152602081018281526000805460018101825590805282517f290decd9548b62a8d60345a988386fc84ba6bc95484008f6362f93160ef3e563600290920291820180546001600160a01b0319166001600160a01b0390921691909117815591517f290decd9548b62a8d60345a988386fc84ba6bc95484008f6362f93160ef3e5649091019061023a908261055a565b50505050565b6000818154811061025057600080fd5b6000918252602090912060029091020180546001820180546001600160a01b0390921693509061027f906104d1565b80601f01602080910402602001604051908101604052809291908181526020018280546102ab906104d1565b80156102f85780601f106102cd576101008083540402835291602001916102f8565b820191906000526020600020905b8154815290600101906020018083116102db57829003601f168201915b5050505050905082565b6000815180845260005b818110156103285760208185018101518683018201520161030c565b506000602082860101526020601f19601f83011685010191505092915050565b60006020808301818452808551808352604092508286019150828160051b87010184880160005b838110156103b757888303603f19018552815180516001600160a01b031684528701518784018790526103a487850182610302565b958801959350509086019060010161036f565b509098975050505050505050565b634e487b7160e01b600052604160045260246000fd5b6000602082840312156103ed57600080fd5b813567ffffffffffffffff8082111561040557600080fd5b818401915084601f83011261041957600080fd5b81358181111561042b5761042b6103c5565b604051601f8201601f19908116603f01168101908382118183101715610453576104536103c5565b8160405282815287602084870101111561046c57600080fd5b826020860160208301376000928101602001929092525095945050505050565b60006020828403121561049e57600080fd5b5035919050565b6001600160a01b03831681526040602082018190526000906104c990830184610302565b949350505050565b600181811c908216806104e557607f821691505b60208210810361050557634e487b7160e01b600052602260045260246000fd5b50919050565b601f82111561055557600081815260208120601f850160051c810160208610156105325750805b601f850160051c820191505b818110156105515782815560010161053e565b5050505b505050565b815167ffffffffffffffff811115610574576105746103c5565b6105888161058284546104d1565b8461050b565b602080601f8311600181146105bd57600084156105a55750858301515b600019600386901b1c1916600185901b178555610551565b600085815260208120601f198616915b828110156105ec578886015182559484019460019091019084016105cd565b508582101561060a5787850151600019600388901b60f8161c191681555b5050505050600190811b0190555056fea264697066735822122058e6e1f9f7264b9beeab3217a96c39d82d3da191b8073a7eebee077b29c4e32464736f6c63430008140033",
  "linkReferences": {},
  "deployedLinkReferences": {}
}