{
  "_format": "hh-sol-artifact-1",
  "contractName": "Guestbook",
  "sourceName": "contracts/Guestbook.sol",
  "abi": [
    {
      "inputs": [
        {
          "internalType": "uint256",
          "name": "",
          "type": "uint256"
        }
      ],
      "name": "entries",
      "outputs": [
        {
          "internalType": "string",
          "name": "name",
          "type": "string"
        },
        {
          "internalType": "string",
          "name": "message",
          "type": "string"
        }
      ],
      "stateMutability": "view",
      "type": "function"
    },
    {
      "inputs": [],
      "name": "getEntries",
      "outputs": [
        {
          "components": [
            {
              "internalType": "string",
              "name": "name",
              "type": "string"
            },
            {
              "internalType": "string",
              "name": "message",
              "type": "string"
            }
          ],
          "internalType": "struct Guestbook.Entry[]",
          "name": "",
          "type": "tuple[]"
        }
      ],
      "stateMutability": "view",
      "type": "function"
    },
    {
      "inputs": [
        {
          "internalType": "string",
          "name": "_name",
          "type": "string"
        },
        {
          "internalType": "string",
          "name": "_message",
          "type": "string"
        }
      ],
      "name": "signGuestbook",
      "outputs": [],
      "stateMutability": "nonpayable",
      "type": "function"
    }
  ],
  "bytecode": "0x608060405234801561001057600080fd5b5061076c806100206000396000f3fe608060405234801561001057600080fd5b50600436106100415760003560e01c80630ffcb0701461004657806317be85c31461005b578063b30906d414610079575b600080fd5b610059610054366004610477565b61009a565b005b61006361010d565b6040516100709190610521565b60405180910390f35b61008c6100873660046105a6565b610290565b6040516100709291906105bf565b604080518082019091528281526020810182905260008054600181018255908052815160029091027f290decd9548b62a8d60345a988386fc84ba6bc95484008f6362f93160ef3e563019081906100f19082610676565b50602082015160018201906101069082610676565b5050505050565b60606000805480602002602001604051908101604052809291908181526020016000905b828210156102875783829060005260206000209060020201604051806040016040529081600082018054610164906105ed565b80601f0160208091040260200160405190810160405280929190818152602001828054610190906105ed565b80156101dd5780601f106101b2576101008083540402835291602001916101dd565b820191906000526020600020905b8154815290600101906020018083116101c057829003601f168201915b505050505081526020016001820180546101f6906105ed565b80601f0160208091040260200160405190810160405280929190818152602001828054610222906105ed565b801561026f5780601f106102445761010080835404028352916020019161026f565b820191906000526020600020905b81548152906001019060200180831161025257829003601f168201915b50505050508152505081526020019060010190610131565b50505050905090565b600081815481106102a057600080fd5b90600052602060002090600202016000915090508060000180546102c3906105ed565b80601f01602080910402602001604051908101604052809291908181526020018280546102ef906105ed565b801561033c5780601f106103115761010080835404028352916020019161033c565b820191906000526020600020905b81548152906001019060200180831161031f57829003601f168201915b505050505090806001018054610351906105ed565b80601f016020809104026020016040519081016040528092919081815260200182805461037d906105ed565b80156103ca5780601f1061039f576101008083540402835291602001916103ca565b820191906000526020600020905b8154815290600101906020018083116103ad57829003601f168201915b5050505050905082565b634e487b7160e01b600052604160045260246000fd5b600082601f8301126103fb57600080fd5b813567ffffffffffffffff80821115610416576104166103d4565b604051601f8301601f19908116603f0116810190828211818310171561043e5761043e6103d4565b8160405283815286602085880101111561045757600080fd5b836020870160208301376000602085830101528094505050505092915050565b6000806040838503121561048a57600080fd5b823567ffffffffffffffff808211156104a257600080fd5b6104ae868387016103ea565b935060208501359150808211156104c457600080fd5b506104d1858286016103ea565b9150509250929050565b6000815180845260005b81811015610501576020818501810151868301820152016104e5565b506000602082860101526020601f19601f83011685010191505092915050565b60006020808301818452808551808352604092508286019150828160051b87010184880160005b8381101561059857888303603f190185528151805187855261056c888601826104db565b91890151858303868b015291905061058481836104db565b968901969450505090860190600101610548565b509098975050505050505050565b6000602082840312156105b857600080fd5b5035919050565b6040815260006105d260408301856104db565b82810360208401526105e481856104db565b95945050505050565b600181811c9082168061060157607f821691505b60208210810361062157634e487b7160e01b600052602260045260246000fd5b50919050565b601f82111561067157600081815260208120601f850160051c8101602086101561064e5750805b601f850160051c820191505b8181101561066d5782815560010161065a565b5050505b505050565b815167ffffffffffffffff811115610690576106906103d4565b6106a48161069e84546105ed565b84610627565b602080601f8311600181146106d957600084156106c15750858301515b600019600386901b1c1916600185901b17855561066d565b600085815260208120601f198616915b82811015610708578886015182559484019460019091019084016106e9565b50858210156107265787850151600019600388901b60f8161c191681555b5050505050600190811b0190555056fea26469706673582212202627ee3b55e2b5ca9721d9f83d348ed6da9d1878b5fce37078d3e60c023472ba64736f6c63430008140033",
  "linkReferences": {},
  "deployedLinkReferences": {}
}