{
  "_format": "hh-sol-artifact-1",
  "contractName": "MyNFT",
  "sourceName": "contracts/MyNFT.sol",
  "abi": [
    {
      "inputs": [],
      "stateMutability": "nonpayable",
      "type": "constructor"
    },
    {
      "inputs": [
        {
          "internalType": "address",
          "name": "sender",
          "type": "address"
        },
        {
          "internalType": "uint256",
          "name": "tokenId",
          "type": "uint256"
        },
        {
          "internalType": "address",
          "name": "owner",
          "type": "address"
        }
      ],
      "name": "ERC721IncorrectOwner",
      "type": "error"
    },
    {
      "inputs": [
        {
          "internalType": "address",
          "name": "operator",
          "type": "address"
        },
        {
          "internalType": "uint256",
          "name": "tokenId",
          "type": "uint256"
        }
      ],
      "name": "ERC721InsufficientApproval",
      "type": "error"
    },
    {
      "inputs": [
        {
          "internalType": "address",
          "name": "approver",
          "type": "address"
        }
      ],
      "name": "ERC721InvalidApprover",
      "type": "error"
    },
    {
      "inputs": [
        {
          "internalType": "address",
          "name": "operator",
          "type": "address"
        }
      ],
      "name": "ERC721InvalidOperator",
      "type": "error"
    },
    {
      "inputs": [
        {
          "internalType": "address",
          "name": "owner",
          "type": "address"
        }
      ],
      "name": "ERC721InvalidOwner",
      "type": "error"
    },
    {
      "inputs": [
        {
          "internalType": "address",
          "name": "receiver",
          "type": "address"
        }
      ],
      "name": "ERC721InvalidReceiver",
      "type": "error"
    },
    {
      "inputs": [
        {
          "internalType": "address",
          "name": "sender",
          "type": "address"
        }
      ],
      "name": "ERC721InvalidSender",
      "type": "error"
    },
    {
      "inputs": [
        {
          "internalType": "uint256",
          "name": "tokenId",
          "type": "uint256"
        }
      ],
      "name": "ERC721NonexistentToken",
      "type": "error"
    },
    {
      "anonymous": false,
      "inputs": [
        {
          "indexed": true,
          "internalType": "address",
          "name": "owner",
          "type": "address"
        },
        {
          "indexed": true,
          "internalType": "address",
          "name": "approved",
          "type": "address"
        },
        {
          "indexed": true,
          "internalType": "uint256",
          "name": "tokenId",
          "type": "uint256"
        }
      ],
      "name": "Approval",
      "type": "event"
    },
    {
      "anonymous": false,
      "inputs": [
        {
          "indexed": true,
          "internalType": "address",
          "name": "owner",
          "type": "address"
        },
        {
          "indexed": true,
          "internalType": "address",
          "name": "operator",
          "type": "address"
        },
        {
          "indexed": false,
          "internalType": "bool",
          "name": "approved",
          "type": "bool"
        }
      ],
      "name": "ApprovalForAll",
      "type": "event"
    },
    {
      "anonymous": false,
      "inputs": [
        {
          "indexed": false,
          "internalType": "uint256",
          "name": "_fromTokenId",
          "type": "uint256"
        },
        {
          "indexed": false,
          "internalType": "uint256",
          "name": "_toTokenId",
          "type": "uint256"
        }
      ],
      "name": "BatchMetadataUpdate",
      "type": "event"
    },
    {
      "anonymous": false,
      "inputs": [
        {
          "indexed": false,
          "internalType": "uint256",
          "name": "_tokenId",
          "type": "uint256"
        }
      ],
      "name": "MetadataUpdate",
      "type": "event"
    },
    {
      "anonymous": false,
      "inputs": [
        {
          "indexed": true,
          "internalType": "address",
          "name": "from",
          "type": "address"
        },
        {
          "indexed": true,
          "internalType": "address",
          "name": "to",
          "type": "address"
        },
        {
          "indexed": true,
          "internalType": "uint256",
          "name": "tokenId",
          "type": "uint256"
        }
      ],
      "name": "Transfer",
      "type": "event"
    },
    {
      "inputs": [
        {
          "internalType": "address",
          "name": "to",
          "type": "address"
        },
        {
          "internalType": "uint256",
          "name": "tokenId",
          "type": "uint256"
        }
      ],
      "name": "approve",
      "outputs": [],
      "stateMutability": "nonpayable",
      "type": "function"
    },
    {
      "inputs": [
        {
          "internalType": "address",
          "name": "owner",
          "type": "address"
        }
      ],
      "name": "balanceOf",
      "outputs": [
        {
          "internalType": "uint256",
          "name": "",
          "type": "uint256"
        }
      ],
      "stateMutability": "view",
      "type": "function"
    },
    {
      "inputs": [],
      "name": "claimNFT",
      "outputs": [],
      "stateMutability": "nonpayable",
      "type": "function"
    },
    {
      "inputs": [
        {
          "internalType": "uint256",
          "name": "tokenId",
          "type": "uint256"
        }
      ],
      "name": "getApproved",
      "outputs": [
        {
          "internalType": "address",
          "name": "",
          "type": "address"
        }
      ],
      "stateMutability": "view",
      "type": "function"
    },
    {
      "inputs": [
        {
          "internalType": "address",
          "name": "",
          "type": "address"
        }
      ],
      "name": "hasClaimed",
      "outputs": [
        {
          "internalType": "bool",
          "name": "",
          "type": "bool"
        }
      ],
      "stateMutability": "view",
      "type": "function"
    },
    {
      "inputs": [
        {
          "internalType": "address",
          "name": "",
          "type": "address"
        }
      ],
      "name": "hasSigned",
      "outputs": [
        {
          "internalType": "bool",
          "name": "",
          "type": "bool"
        }
      ],
      "stateMutability": "view",
      "type": "function"
    },
    {
      "inputs": [
        {
          "internalType": "address",
          "name": "owner",
          "type": "address"
        },
        {
          "internalType": "address",
          "name": "operator",
          "type": "address"
        }
      ],
      "name": "isApprovedForAll",
      "outputs": [
        {
          "internalType": "bool",
          "name": "",
          "type": "bool"
        }
      ],
      "stateMutability": "view",
      "type": "function"
    },
    {
      "inputs": [],
      "name": "name",
      "outputs": [
        {
          "internalType": "string",
          "name": "",
          "type": "string"
        }
      ],
      "stateMutability": "view",
      "type": "function"
    },
    {
      "inputs": [],
      "name": "nextTokenId",
      "outputs": [
        {
          "internalType": "uint256",
          "name": "",
          "type": "uint256"
        }
      ],
      "stateMutability": "view",
      "type": "function"
    },
    {
      "inputs": [
        {
          "internalType": "uint256",
          "name": "tokenId",
          "type": "uint256"
        }
      ],
      "name": "ownerOf",
      "outputs": [
        {
          "internalType": "address",
          "name": "",
          "type": "address"
        }
      ],
      "stateMutability": "view",
      "type": "function"
    },
    {
      "inputs": [
        {
          "internalType": "address",
          "name": "from",
          "type": "address"
        },
        {
          "internalType": "address",
          "name": "to",
          "type": "address"
        },
        {
          "internalType": "uint256",
          "name": "tokenId",
          "type": "uint256"
        }
      ],
      "name": "safeTransferFrom",
      "outputs": [],
      "stateMutability": "nonpayable",
      "type": "function"
    },
    {
      "inputs": [
        {
          "internalType": "address",
          "name": "from",
          "type": "address"
        },
        {
          "internalType": "address",
          "name": "to",
          "type": "address"
        },
        {
          "internalType": "uint256",
          "name": "tokenId",
          "type": "uint256"
        },
        {
          "internalType": "bytes",
          "name": "data",
          "type": "bytes"
        }
      ],
      "name": "safeTransferFrom",
      "outputs": [],
      "stateMutability": "nonpayable",
      "type": "function"
    },
    {
      "inputs": [
        {
          "internalType": "address",
          "name": "operator",
          "type": "address"
        },
        {
          "internalType": "bool",
          "name": "approved",
          "type": "bool"
        }
      ],
      "name": "setApprovalForAll",
      "outputs": [],
      "stateMutability": "nonpayable",
      "type": "function"
    },
    {
      "inputs": [],
      "name": "signDeclaration",
      "outputs": [],
      "stateMutability": "nonpayable",
      "type": "function"
    },
    {
      "inputs": [
        {
          "internalType": "bytes4",
          "name": "interfaceId",
          "type": "bytes4"
        }
      ],
      "name": "supportsInterface",
      "outputs": [
        {
          "internalType": "bool",
          "name": "",
          "type": "bool"
        }
      ],
      "stateMutability": "view",
      "type": "function"
    },
    {
      "inputs": [],
      "name": "symbol",
      "outputs": [
        {
          "internalType": "string",
          "name": "",
          "type": "string"
        }
      ],
      "stateMutability": "view",
      "type": "function"
    },
    {
      "inputs": [
        {
          "internalType": "uint256",
          "name": "tokenId",
          "type": "uint256"
        }
      ],
      "name": "tokenURI",
      "outputs": [
        {
          "internalType": "string",
          "name": "",
          "type": "string"
        }
      ],
      "stateMutability": "view",
      "type": "function"
    },
    {
      "inputs": [
        {
          "internalType": "address",
          "name": "from",
          "type": "address"
        },
        {
          "internalType": "address",
          "name": "to",
          "type": "address"
        },
        {
          "internalType": "uint256",
          "name": "tokenId",
          "type": "uint256"
        }
      ],
      "name": "transferFrom",
      "outputs": [],
      "stateMutability": "nonpayable",
      "type": "function"
    }
  ],
  "bytecode": "0x60806040523480156200001157600080fd5b506040518060400160405280600a8152602001695065616365416c6c696560b01b8152506040518060400160405280600381526020016205544560ec1b815250816000908162000062919062000124565b50600162000071828262000124565b5050600160075550620001f0565b634e487b7160e01b600052604160045260246000fd5b600181811c90821680620000aa57607f821691505b602082108103620000cb57634e487b7160e01b600052602260045260246000fd5b50919050565b601f8211156200011f57600081815260208120601f850160051c81016020861015620000fa5750805b601f850160051c820191505b818110156200011b5782815560010162000106565b5050505b505050565b81516001600160401b038111156200014057620001406200007f565b620001588162000151845462000095565b84620000d1565b602080601f831160018114620001905760008415620001775750858301515b600019600386901b1c1916600185901b1785556200011b565b600085815260208120601f198616915b82811015620001c157888601518255948401946001909101908401620001a0565b5085821015620001e05787850151600019600388901b60f8161c191681555b5050505050600190811b01905550565b6114e080620002006000396000f3fe608060405234801561001057600080fd5b50600436106101165760003560e01c806373b2e80e116100a2578063b88d4fde11610071578063b88d4fde14610241578063bf6a141314610254578063c87b56dd14610277578063e985e9c51461028a578063fed7d2f81461029d57600080fd5b806373b2e80e146101fa57806375794a3c1461021d57806395d89b4114610226578063a22cb4651461022e57600080fd5b806323b872dd116100e957806323b872dd1461019857806342842e0e146101ab5780636352211e146101be578063672756ad146101d157806370a08231146101d957600080fd5b806301ffc9a71461011b57806306fdde0314610143578063081812fc14610158578063095ea7b314610183575b600080fd5b61012e610129366004610fb8565b6102a5565b60405190151581526020015b60405180910390f35b61014b6102d0565b60405161013a9190611025565b61016b610166366004611038565b610362565b6040516001600160a01b03909116815260200161013a565b61019661019136600461106d565b61038b565b005b6101966101a6366004611097565b61039a565b6101966101b9366004611097565b61042a565b61016b6101cc366004611038565b61044a565b610196610455565b6101ec6101e73660046110d3565b610581565b60405190815260200161013a565b61012e6102083660046110d3565b60096020526000908152604090205460ff1681565b6101ec60075481565b61014b6105c9565b61019661023c3660046110ee565b6105d8565b61019661024f366004611140565b6105e3565b61012e6102623660046110d3565b60086020526000908152604090205460ff1681565b61014b610285366004611038565b6105fa565b61012e61029836600461121c565b61070b565b610196610739565b60006001600160e01b03198216632483248360e11b14806102ca57506102ca826107b5565b92915050565b6060600080546102df9061124f565b80601f016020809104026020016040519081016040528092919081815260200182805461030b9061124f565b80156103585780601f1061032d57610100808354040283529160200191610358565b820191906000526020600020905b81548152906001019060200180831161033b57829003601f168201915b5050505050905090565b600061036d82610805565b506000828152600460205260409020546001600160a01b03166102ca565b61039682823361083e565b5050565b6001600160a01b0382166103c957604051633250574960e11b8152600060048201526024015b60405180910390fd5b60006103d683833361084b565b9050836001600160a01b0316816001600160a01b031614610424576040516364283d7b60e01b81526001600160a01b03808616600483015260248201849052821660448201526064016103c0565b50505050565b610445838383604051806020016040528060008152506105e3565b505050565b60006102ca82610805565b3360009081526008602052604090205460ff166104c05760405162461bcd60e51b815260206004820152602360248201527f5072696d65726f206465626573206669726d6172206c61206465636c6172616360448201526234b7b760e91b60648201526084016103c0565b3360009081526009602052604090205460ff16156105205760405162461bcd60e51b815260206004820152601760248201527f596120686173207265636c616d61646f207475204e465400000000000000000060448201526064016103c0565b60075461052d3382610944565b61054f816040518060a00160405280606381526020016114486063913961095e565b6007805490600061055f83611289565b9091555050336000908152600960205260409020805460ff1916600117905550565b60006001600160a01b0382166105ad576040516322718ad960e21b8152600060048201526024016103c0565b506001600160a01b031660009081526003602052604090205490565b6060600180546102df9061124f565b6103963383836109ae565b6105ee84848461039a565b61042484848484610a4d565b606061060582610805565b506000828152600660205260408120805461061f9061124f565b80601f016020809104026020016040519081016040528092919081815260200182805461064b9061124f565b80156106985780601f1061066d57610100808354040283529160200191610698565b820191906000526020600020905b81548152906001019060200180831161067b57829003601f168201915b5050505050905060006106b660408051602081019091526000815290565b905080516000036106c8575092915050565b8151156106fa5780826040516020016106e29291906112b0565b60405160208183030381529060405292505050919050565b61070384610b76565b949350505050565b6001600160a01b03918216600090815260056020908152604080832093909416825291909152205460ff1690565b3360009081526008602052604090205460ff16156107995760405162461bcd60e51b815260206004820152601d60248201527f596120686173206669726d61646f206c61206465636c61726163696f6e00000060448201526064016103c0565b336000908152600860205260409020805460ff19166001179055565b60006001600160e01b031982166380ac58cd60e01b14806107e657506001600160e01b03198216635b5e139f60e01b145b806102ca57506301ffc9a760e01b6001600160e01b03198316146102ca565b6000818152600260205260408120546001600160a01b0316806102ca57604051637e27328960e01b8152600481018490526024016103c0565b6104458383836001610beb565b6000828152600260205260408120546001600160a01b039081169083161561087857610878818486610cf1565b6001600160a01b038116156108b657610895600085600080610beb565b6001600160a01b038116600090815260036020526040902080546000190190555b6001600160a01b038516156108e5576001600160a01b0385166000908152600360205260409020805460010190555b60008481526002602052604080822080546001600160a01b0319166001600160a01b0389811691821790925591518793918516917fddf252ad1be2c89b69c2b068fc378daa952ba7f163c4a11628f55a4df523b3ef91a4949350505050565b610396828260405180602001604052806000815250610d55565b6000828152600660205260409020610976828261132d565b506040518281527ff8e1a15aba9398e019f0b49df1a4fde98ee17ae345cb5f6b5e2c27f5033e8ce79060200160405180910390a15050565b6001600160a01b0382166109e057604051630b61174360e31b81526001600160a01b03831660048201526024016103c0565b6001600160a01b03838116600081815260056020908152604080832094871680845294825291829020805460ff191686151590811790915591519182527f17307eab39ab6107e8899845ad3d59bd9653f200f220920489ca2b5937696c31910160405180910390a3505050565b6001600160a01b0383163b1561042457604051630a85bd0160e11b81526001600160a01b0384169063150b7a0290610a8f9033908890879087906004016113ed565b6020604051808303816000875af1925050508015610aca575060408051601f3d908101601f19168201909252610ac79181019061142a565b60015b610b33573d808015610af8576040519150601f19603f3d011682016040523d82523d6000602084013e610afd565b606091505b508051600003610b2b57604051633250574960e11b81526001600160a01b03851660048201526024016103c0565b805181602001fd5b6001600160e01b03198116630a85bd0160e11b14610b6f57604051633250574960e11b81526001600160a01b03851660048201526024016103c0565b5050505050565b6060610b8182610805565b506000610b9960408051602081019091526000815290565b90506000815111610bb95760405180602001604052806000815250610be4565b80610bc384610d6c565b604051602001610bd49291906112b0565b6040516020818303038152906040525b9392505050565b8080610bff57506001600160a01b03821615155b15610cc1576000610c0f84610805565b90506001600160a01b03831615801590610c3b5750826001600160a01b0316816001600160a01b031614155b8015610c4e5750610c4c818461070b565b155b15610c775760405163a9fbf51f60e01b81526001600160a01b03841660048201526024016103c0565b8115610cbf5783856001600160a01b0316826001600160a01b03167f8c5be1e5ebec7d5bd14f71427d1e84f3dd0314c0f7b2291e5b200ac8c7c3b92560405160405180910390a45b505b5050600090815260046020526040902080546001600160a01b0319166001600160a01b0392909216919091179055565b610cfc838383610dff565b610445576001600160a01b038316610d2a57604051637e27328960e01b8152600481018290526024016103c0565b60405163177e802f60e01b81526001600160a01b0383166004820152602481018290526044016103c0565b610d5f8383610e62565b6104456000848484610a4d565b60606000610d7983610ec7565b600101905060008167ffffffffffffffff811115610d9957610d9961112a565b6040519080825280601f01601f191660200182016040528015610dc3576020820181803683370190505b5090508181016020015b600019016f181899199a1a9b1b9c1cb0b131b232b360811b600a86061a8153600a8504945084610dcd57509392505050565b60006001600160a01b038316158015906107035750826001600160a01b0316846001600160a01b03161480610e395750610e39848461070b565b806107035750506000908152600460205260409020546001600160a01b03908116911614919050565b6001600160a01b038216610e8c57604051633250574960e11b8152600060048201526024016103c0565b6000610e9a8383600061084b565b90506001600160a01b03811615610445576040516339e3563760e11b8152600060048201526024016103c0565b60008072184f03e93ff9f4daa797ed6e38ed64bf6a1f0160401b8310610f065772184f03e93ff9f4daa797ed6e38ed64bf6a1f0160401b830492506040015b6d04ee2d6d415b85acef81000000008310610f32576d04ee2d6d415b85acef8100000000830492506020015b662386f26fc100008310610f5057662386f26fc10000830492506010015b6305f5e1008310610f68576305f5e100830492506008015b6127108310610f7c57612710830492506004015b60648310610f8e576064830492506002015b600a83106102ca5760010192915050565b6001600160e01b031981168114610fb557600080fd5b50565b600060208284031215610fca57600080fd5b8135610be481610f9f565b60005b83811015610ff0578181015183820152602001610fd8565b50506000910152565b60008151808452611011816020860160208601610fd5565b601f01601f19169290920160200192915050565b602081526000610be46020830184610ff9565b60006020828403121561104a57600080fd5b5035919050565b80356001600160a01b038116811461106857600080fd5b919050565b6000806040838503121561108057600080fd5b61108983611051565b946020939093013593505050565b6000806000606084860312156110ac57600080fd5b6110b584611051565b92506110c360208501611051565b9150604084013590509250925092565b6000602082840312156110e557600080fd5b610be482611051565b6000806040838503121561110157600080fd5b61110a83611051565b91506020830135801515811461111f57600080fd5b809150509250929050565b634e487b7160e01b600052604160045260246000fd5b6000806000806080858703121561115657600080fd5b61115f85611051565b935061116d60208601611051565b925060408501359150606085013567ffffffffffffffff8082111561119157600080fd5b818701915087601f8301126111a557600080fd5b8135818111156111b7576111b761112a565b604051601f8201601f19908116603f011681019083821181831017156111df576111df61112a565b816040528281528a60208487010111156111f857600080fd5b82602086016020830137600060208483010152809550505050505092959194509250565b6000806040838503121561122f57600080fd5b61123883611051565b915061124660208401611051565b90509250929050565b600181811c9082168061126357607f821691505b60208210810361128357634e487b7160e01b600052602260045260246000fd5b50919050565b6000600182016112a957634e487b7160e01b600052601160045260246000fd5b5060010190565b600083516112c2818460208801610fd5565b8351908301906112d6818360208801610fd5565b01949350505050565b601f82111561044557600081815260208120601f850160051c810160208610156113065750805b601f850160051c820191505b8181101561132557828155600101611312565b505050505050565b815167ffffffffffffffff8111156113475761134761112a565b61135b81611355845461124f565b846112df565b602080601f83116001811461139057600084156113785750858301515b600019600386901b1c1916600185901b178555611325565b600085815260208120601f198616915b828110156113bf578886015182559484019460019091019084016113a0565b50858210156113dd5787850151600019600388901b60f8161c191681555b5050505050600190811b01905550565b6001600160a01b038581168252841660208201526040810183905260806060820181905260009061142090830184610ff9565b9695505050505050565b60006020828403121561143c57600080fd5b8151610be481610f9f56fe68747470733a2f2f7265642d63617573616c2d61726d6164696c6c6f2d3339372e6d7970696e6174612e636c6f75642f697066732f516d63746a4345314679767548504659743250524a5759376d58764e71515750714d637146626f6f724c584a4243a26469706673582212206c3ca531bf1b0cd8a6aa4ed746f16d72e02ce81fb4a2020ff679a04ef40c49f864736f6c63430008140033",
  "linkReferences": {},
  "deployedLinkReferences": {}
}