{
  "_format": "hh-sol-artifact-1",
  "contractName": "MyNFT",
  "sourceName": "contracts/MyNFT.sol",
  "abi": [
    {
      "inputs": [],
      "stateMutability": "nonpayable",
      "type": "constructor"
    },
    {
      "inputs": [
        {
          "internalType": "address",
          "name": "sender",
          "type": "address"
        },
        {
          "internalType": "uint256",
          "name": "tokenId",
          "type": "uint256"
        },
        {
          "internalType": "address",
          "name": "owner",
          "type": "address"
        }
      ],
      "name": "ERC721IncorrectOwner",
      "type": "error"
    },
    {
      "inputs": [
        {
          "internalType": "address",
          "name": "operator",
          "type": "address"
        },
        {
          "internalType": "uint256",
          "name": "tokenId",
          "type": "uint256"
        }
      ],
      "name": "ERC721InsufficientApproval",
      "type": "error"
    },
    {
      "inputs": [
        {
          "internalType": "address",
          "name": "approver",
          "type": "address"
        }
      ],
      "name": "ERC721InvalidApprover",
      "type": "error"
    },
    {
      "inputs": [
        {
          "internalType": "address",
          "name": "operator",
          "type": "address"
        }
      ],
      "name": "ERC721InvalidOperator",
      "type": "error"
    },
    {
      "inputs": [
        {
          "internalType": "address",
          "name": "owner",
          "type": "address"
        }
      ],
      "name": "ERC721InvalidOwner",
      "type": "error"
    },
    {
      "inputs": [
        {
          "internalType": "address",
          "name": "receiver",
          "type": "address"
        }
      ],
      "name": "ERC721InvalidReceiver",
      "type": "error"
    },
    {
      "inputs": [
        {
          "internalType": "address",
          "name": "sender",
          "type": "address"
        }
      ],
      "name": "ERC721InvalidSender",
      "type": "error"
    },
    {
      "inputs": [
        {
          "internalType": "uint256",
          "name": "tokenId",
          "type": "uint256"
        }
      ],
      "name": "ERC721NonexistentToken",
      "type": "error"
    },
    {
      "anonymous": false,
      "inputs": [
        {
          "indexed": true,
          "internalType": "address",
          "name": "owner",
          "type": "address"
        },
        {
          "indexed": true,
          "internalType": "address",
          "name": "approved",
          "type": "address"
        },
        {
          "indexed": true,
          "internalType": "uint256",
          "name": "tokenId",
          "type": "uint256"
        }
      ],
      "name": "Approval",
      "type": "event"
    },
    {
      "anonymous": false,
      "inputs": [
        {
          "indexed": true,
          "internalType": "address",
          "name": "owner",
          "type": "address"
        },
        {
          "indexed": true,
          "internalType": "address",
          "name": "operator",
          "type": "address"
        },
        {
          "indexed": false,
          "internalType": "bool",
          "name": "approved",
          "type": "bool"
        }
      ],
      "name": "ApprovalForAll",
      "type": "event"
    },
    {
      "anonymous": false,
      "inputs": [
        {
          "indexed": false,
          "internalType": "uint256",
          "name": "_fromTokenId",
          "type": "uint256"
        },
        {
          "indexed": false,
          "internalType": "uint256",
          "name": "_toTokenId",
          "type": "uint256"
        }
      ],
      "name": "BatchMetadataUpdate",
      "type": "event"
    },
    {
      "anonymous": false,
      "inputs": [
        {
          "indexed": false,
          "internalType": "uint256",
          "name": "_tokenId",
          "type": "uint256"
        }
      ],
      "name": "MetadataUpdate",
      "type": "event"
    },
    {
      "anonymous": false,
      "inputs": [
        {
          "indexed": true,
          "internalType": "address",
          "name": "from",
          "type": "address"
        },
        {
          "indexed": true,
          "internalType": "address",
          "name": "to",
          "type": "address"
        },
        {
          "indexed": true,
          "internalType": "uint256",
          "name": "tokenId",
          "type": "uint256"
        }
      ],
      "name": "Transfer",
      "type": "event"
    },
    {
      "inputs": [
        {
          "internalType": "address",
          "name": "to",
          "type": "address"
        },
        {
          "internalType": "uint256",
          "name": "tokenId",
          "type": "uint256"
        }
      ],
      "name": "approve",
      "outputs": [],
      "stateMutability": "nonpayable",
      "type": "function"
    },
    {
      "inputs": [
        {
          "internalType": "address",
          "name": "owner",
          "type": "address"
        }
      ],
      "name": "balanceOf",
      "outputs": [
        {
          "internalType": "uint256",
          "name": "",
          "type": "uint256"
        }
      ],
      "stateMutability": "view",
      "type": "function"
    },
    {
      "inputs": [],
      "name": "claimNFT",
      "outputs": [],
      "stateMutability": "nonpayable",
      "type": "function"
    },
    {
      "inputs": [
        {
          "internalType": "uint256",
          "name": "tokenId",
          "type": "uint256"
        }
      ],
      "name": "getApproved",
      "outputs": [
        {
          "internalType": "address",
          "name": "",
          "type": "address"
        }
      ],
      "stateMutability": "view",
      "type": "function"
    },
    {
      "inputs": [
        {
          "internalType": "address",
          "name": "",
          "type": "address"
        }
      ],
      "name": "hasClaimed",
      "outputs": [
        {
          "internalType": "bool",
          "name": "",
          "type": "bool"
        }
      ],
      "stateMutability": "view",
      "type": "function"
    },
    {
      "inputs": [
        {
          "internalType": "address",
          "name": "owner",
          "type": "address"
        },
        {
          "internalType": "address",
          "name": "operator",
          "type": "address"
        }
      ],
      "name": "isApprovedForAll",
      "outputs": [
        {
          "internalType": "bool",
          "name": "",
          "type": "bool"
        }
      ],
      "stateMutability": "view",
      "type": "function"
    },
    {
      "inputs": [],
      "name": "name",
      "outputs": [
        {
          "internalType": "string",
          "name": "",
          "type": "string"
        }
      ],
      "stateMutability": "view",
      "type": "function"
    },
    {
      "inputs": [],
      "name": "nextTokenId",
      "outputs": [
        {
          "internalType": "uint256",
          "name": "",
          "type": "uint256"
        }
      ],
      "stateMutability": "view",
      "type": "function"
    },
    {
      "inputs": [
        {
          "internalType": "uint256",
          "name": "tokenId",
          "type": "uint256"
        }
      ],
      "name": "ownerOf",
      "outputs": [
        {
          "internalType": "address",
          "name": "",
          "type": "address"
        }
      ],
      "stateMutability": "view",
      "type": "function"
    },
    {
      "inputs": [
        {
          "internalType": "address",
          "name": "from",
          "type": "address"
        },
        {
          "internalType": "address",
          "name": "to",
          "type": "address"
        },
        {
          "internalType": "uint256",
          "name": "tokenId",
          "type": "uint256"
        }
      ],
      "name": "safeTransferFrom",
      "outputs": [],
      "stateMutability": "nonpayable",
      "type": "function"
    },
    {
      "inputs": [
        {
          "internalType": "address",
          "name": "from",
          "type": "address"
        },
        {
          "internalType": "address",
          "name": "to",
          "type": "address"
        },
        {
          "internalType": "uint256",
          "name": "tokenId",
          "type": "uint256"
        },
        {
          "internalType": "bytes",
          "name": "data",
          "type": "bytes"
        }
      ],
      "name": "safeTransferFrom",
      "outputs": [],
      "stateMutability": "nonpayable",
      "type": "function"
    },
    {
      "inputs": [
        {
          "internalType": "address",
          "name": "operator",
          "type": "address"
        },
        {
          "internalType": "bool",
          "name": "approved",
          "type": "bool"
        }
      ],
      "name": "setApprovalForAll",
      "outputs": [],
      "stateMutability": "nonpayable",
      "type": "function"
    },
    {
      "inputs": [
        {
          "internalType": "bytes4",
          "name": "interfaceId",
          "type": "bytes4"
        }
      ],
      "name": "supportsInterface",
      "outputs": [
        {
          "internalType": "bool",
          "name": "",
          "type": "bool"
        }
      ],
      "stateMutability": "view",
      "type": "function"
    },
    {
      "inputs": [],
      "name": "symbol",
      "outputs": [
        {
          "internalType": "string",
          "name": "",
          "type": "string"
        }
      ],
      "stateMutability": "view",
      "type": "function"
    },
    {
      "inputs": [
        {
          "internalType": "uint256",
          "name": "tokenId",
          "type": "uint256"
        }
      ],
      "name": "tokenURI",
      "outputs": [
        {
          "internalType": "string",
          "name": "",
          "type": "string"
        }
      ],
      "stateMutability": "view",
      "type": "function"
    },
    {
      "inputs": [
        {
          "internalType": "address",
          "name": "from",
          "type": "address"
        },
        {
          "internalType": "address",
          "name": "to",
          "type": "address"
        },
        {
          "internalType": "uint256",
          "name": "tokenId",
          "type": "uint256"
        }
      ],
      "name": "transferFrom",
      "outputs": [],
      "stateMutability": "nonpayable",
      "type": "function"
    }
  ],
  "bytecode": "0x60806040523480156200001157600080fd5b506040518060400160405280600a8152602001695065616365416c6c696560b01b8152506040518060400160405280600381526020016205544560ec1b815250816000908162000062919062000124565b50600162000071828262000124565b5050600160075550620001f0565b634e487b7160e01b600052604160045260246000fd5b600181811c90821680620000aa57607f821691505b602082108103620000cb57634e487b7160e01b600052602260045260246000fd5b50919050565b601f8211156200011f57600081815260208120601f850160051c81016020861015620000fa5750805b601f850160051c820191505b818110156200011b5782815560010162000106565b5050505b505050565b81516001600160401b038111156200014057620001406200007f565b620001588162000151845462000095565b84620000d1565b602080601f831160018114620001905760008415620001775750858301515b600019600386901b1c1916600185901b1785556200011b565b600085815260208120601f198616915b82811015620001c157888601518255948401946001909101908401620001a0565b5085821015620001e05787850151600019600388901b60f8161c191681555b5050505050600190811b01905550565b6113b880620002006000396000f3fe608060405234801561001057600080fd5b50600436106101005760003560e01c806370a0823111610097578063a22cb46511610066578063a22cb46514610218578063b88d4fde1461022b578063c87b56dd1461023e578063e985e9c51461025157600080fd5b806370a08231146101c357806373b2e80e146101e457806375794a3c1461020757806395d89b411461021057600080fd5b806323b872dd116100d357806323b872dd1461018257806342842e0e146101955780636352211e146101a8578063672756ad146101bb57600080fd5b806301ffc9a71461010557806306fdde031461012d578063081812fc14610142578063095ea7b31461016d575b600080fd5b610118610113366004610e90565b610264565b60405190151581526020015b60405180910390f35b61013561028f565b6040516101249190610efd565b610155610150366004610f10565b610321565b6040516001600160a01b039091168152602001610124565b61018061017b366004610f45565b61034a565b005b610180610190366004610f6f565b610359565b6101806101a3366004610f6f565b6103e9565b6101556101b6366004610f10565b610409565b610180610414565b6101d66101d1366004610fab565b6104d5565b604051908152602001610124565b6101186101f2366004610fab565b60086020526000908152604090205460ff1681565b6101d660075481565b61013561051d565b610180610226366004610fc6565b61052c565b610180610239366004611018565b610537565b61013561024c366004610f10565b61054e565b61011861025f3660046110f4565b61065f565b60006001600160e01b03198216632483248360e11b148061028957506102898261068d565b92915050565b60606000805461029e90611127565b80601f01602080910402602001604051908101604052809291908181526020018280546102ca90611127565b80156103175780601f106102ec57610100808354040283529160200191610317565b820191906000526020600020905b8154815290600101906020018083116102fa57829003601f168201915b5050505050905090565b600061032c826106dd565b506000828152600460205260409020546001600160a01b0316610289565b610355828233610716565b5050565b6001600160a01b03821661038857604051633250574960e11b8152600060048201526024015b60405180910390fd5b6000610395838333610723565b9050836001600160a01b0316816001600160a01b0316146103e3576040516364283d7b60e01b81526001600160a01b038086166004830152602482018490528216604482015260640161037f565b50505050565b61040483838360405180602001604052806000815250610537565b505050565b6000610289826106dd565b3360009081526008602052604090205460ff16156104745760405162461bcd60e51b815260206004820152601760248201527f596120686173207265636c616d61646f207475204e4654000000000000000000604482015260640161037f565b600754610481338261081c565b6104a3816040518060a001604052806063815260200161132060639139610836565b600780549060006104b383611161565b9091555050336000908152600860205260409020805460ff1916600117905550565b60006001600160a01b038216610501576040516322718ad960e21b81526000600482015260240161037f565b506001600160a01b031660009081526003602052604090205490565b60606001805461029e90611127565b610355338383610886565b610542848484610359565b6103e384848484610925565b6060610559826106dd565b506000828152600660205260408120805461057390611127565b80601f016020809104026020016040519081016040528092919081815260200182805461059f90611127565b80156105ec5780601f106105c1576101008083540402835291602001916105ec565b820191906000526020600020905b8154815290600101906020018083116105cf57829003601f168201915b50505050509050600061060a60408051602081019091526000815290565b9050805160000361061c575092915050565b81511561064e578082604051602001610636929190611188565b60405160208183030381529060405292505050919050565b61065784610a4e565b949350505050565b6001600160a01b03918216600090815260056020908152604080832093909416825291909152205460ff1690565b60006001600160e01b031982166380ac58cd60e01b14806106be57506001600160e01b03198216635b5e139f60e01b145b8061028957506301ffc9a760e01b6001600160e01b0319831614610289565b6000818152600260205260408120546001600160a01b03168061028957604051637e27328960e01b81526004810184905260240161037f565b6104048383836001610ac3565b6000828152600260205260408120546001600160a01b039081169083161561075057610750818486610bc9565b6001600160a01b0381161561078e5761076d600085600080610ac3565b6001600160a01b038116600090815260036020526040902080546000190190555b6001600160a01b038516156107bd576001600160a01b0385166000908152600360205260409020805460010190555b60008481526002602052604080822080546001600160a01b0319166001600160a01b0389811691821790925591518793918516917fddf252ad1be2c89b69c2b068fc378daa952ba7f163c4a11628f55a4df523b3ef91a4949350505050565b610355828260405180602001604052806000815250610c2d565b600082815260066020526040902061084e8282611205565b506040518281527ff8e1a15aba9398e019f0b49df1a4fde98ee17ae345cb5f6b5e2c27f5033e8ce79060200160405180910390a15050565b6001600160a01b0382166108b857604051630b61174360e31b81526001600160a01b038316600482015260240161037f565b6001600160a01b03838116600081815260056020908152604080832094871680845294825291829020805460ff191686151590811790915591519182527f17307eab39ab6107e8899845ad3d59bd9653f200f220920489ca2b5937696c31910160405180910390a3505050565b6001600160a01b0383163b156103e357604051630a85bd0160e11b81526001600160a01b0384169063150b7a02906109679033908890879087906004016112c5565b6020604051808303816000875af19250505080156109a2575060408051601f3d908101601f1916820190925261099f91810190611302565b60015b610a0b573d8080156109d0576040519150601f19603f3d011682016040523d82523d6000602084013e6109d5565b606091505b508051600003610a0357604051633250574960e11b81526001600160a01b038516600482015260240161037f565b805181602001fd5b6001600160e01b03198116630a85bd0160e11b14610a4757604051633250574960e11b81526001600160a01b038516600482015260240161037f565b5050505050565b6060610a59826106dd565b506000610a7160408051602081019091526000815290565b90506000815111610a915760405180602001604052806000815250610abc565b80610a9b84610c44565b604051602001610aac929190611188565b6040516020818303038152906040525b9392505050565b8080610ad757506001600160a01b03821615155b15610b99576000610ae7846106dd565b90506001600160a01b03831615801590610b135750826001600160a01b0316816001600160a01b031614155b8015610b265750610b24818461065f565b155b15610b4f5760405163a9fbf51f60e01b81526001600160a01b038416600482015260240161037f565b8115610b975783856001600160a01b0316826001600160a01b03167f8c5be1e5ebec7d5bd14f71427d1e84f3dd0314c0f7b2291e5b200ac8c7c3b92560405160405180910390a45b505b5050600090815260046020526040902080546001600160a01b0319166001600160a01b0392909216919091179055565b610bd4838383610cd7565b610404576001600160a01b038316610c0257604051637e27328960e01b81526004810182905260240161037f565b60405163177e802f60e01b81526001600160a01b03831660048201526024810182905260440161037f565b610c378383610d3a565b6104046000848484610925565b60606000610c5183610d9f565b600101905060008167ffffffffffffffff811115610c7157610c71611002565b6040519080825280601f01601f191660200182016040528015610c9b576020820181803683370190505b5090508181016020015b600019016f181899199a1a9b1b9c1cb0b131b232b360811b600a86061a8153600a8504945084610ca557509392505050565b60006001600160a01b038316158015906106575750826001600160a01b0316846001600160a01b03161480610d115750610d11848461065f565b806106575750506000908152600460205260409020546001600160a01b03908116911614919050565b6001600160a01b038216610d6457604051633250574960e11b81526000600482015260240161037f565b6000610d7283836000610723565b90506001600160a01b03811615610404576040516339e3563760e11b81526000600482015260240161037f565b60008072184f03e93ff9f4daa797ed6e38ed64bf6a1f0160401b8310610dde5772184f03e93ff9f4daa797ed6e38ed64bf6a1f0160401b830492506040015b6d04ee2d6d415b85acef81000000008310610e0a576d04ee2d6d415b85acef8100000000830492506020015b662386f26fc100008310610e2857662386f26fc10000830492506010015b6305f5e1008310610e40576305f5e100830492506008015b6127108310610e5457612710830492506004015b60648310610e66576064830492506002015b600a83106102895760010192915050565b6001600160e01b031981168114610e8d57600080fd5b50565b600060208284031215610ea257600080fd5b8135610abc81610e77565b60005b83811015610ec8578181015183820152602001610eb0565b50506000910152565b60008151808452610ee9816020860160208601610ead565b601f01601f19169290920160200192915050565b602081526000610abc6020830184610ed1565b600060208284031215610f2257600080fd5b5035919050565b80356001600160a01b0381168114610f4057600080fd5b919050565b60008060408385031215610f5857600080fd5b610f6183610f29565b946020939093013593505050565b600080600060608486031215610f8457600080fd5b610f8d84610f29565b9250610f9b60208501610f29565b9150604084013590509250925092565b600060208284031215610fbd57600080fd5b610abc82610f29565b60008060408385031215610fd957600080fd5b610fe283610f29565b915060208301358015158114610ff757600080fd5b809150509250929050565b634e487b7160e01b600052604160045260246000fd5b6000806000806080858703121561102e57600080fd5b61103785610f29565b935061104560208601610f29565b925060408501359150606085013567ffffffffffffffff8082111561106957600080fd5b818701915087601f83011261107d57600080fd5b81358181111561108f5761108f611002565b604051601f8201601f19908116603f011681019083821181831017156110b7576110b7611002565b816040528281528a60208487010111156110d057600080fd5b82602086016020830137600060208483010152809550505050505092959194509250565b6000806040838503121561110757600080fd5b61111083610f29565b915061111e60208401610f29565b90509250929050565b600181811c9082168061113b57607f821691505b60208210810361115b57634e487b7160e01b600052602260045260246000fd5b50919050565b60006001820161118157634e487b7160e01b600052601160045260246000fd5b5060010190565b6000835161119a818460208801610ead565b8351908301906111ae818360208801610ead565b01949350505050565b601f82111561040457600081815260208120601f850160051c810160208610156111de5750805b601f850160051c820191505b818110156111fd578281556001016111ea565b505050505050565b815167ffffffffffffffff81111561121f5761121f611002565b6112338161122d8454611127565b846111b7565b602080601f83116001811461126857600084156112505750858301515b600019600386901b1c1916600185901b1785556111fd565b600085815260208120601f198616915b8281101561129757888601518255948401946001909101908401611278565b50858210156112b55787850151600019600388901b60f8161c191681555b5050505050600190811b01905550565b6001600160a01b03858116825284166020820152604081018390526080606082018190526000906112f890830184610ed1565b9695505050505050565b60006020828403121561131457600080fd5b8151610abc81610e7756fe68747470733a2f2f7265642d63617573616c2d61726d6164696c6c6f2d3339372e6d7970696e6174612e636c6f75642f697066732f516d63746a4345314679767548504659743250524a5759376d58764e71515750714d637146626f6f724c584a4243a2646970667358221220bf80a7fe3116a9de534a876379215a1e275b82b3841e520bacbd86b10867461d64736f6c63430008140033",
  "linkReferences": {},
  "deployedLinkReferences": {}
}