{
  "_format": "hh-sol-artifact-1",
  "contractName": "MyNFT",
  "sourceName": "contracts/MyNFT.sol",
  "abi": [
    {
      "inputs": [],
      "stateMutability": "nonpayable",
      "type": "constructor"
    },
    {
      "inputs": [
        {
          "internalType": "address",
          "name": "sender",
          "type": "address"
        },
        {
          "internalType": "uint256",
          "name": "tokenId",
          "type": "uint256"
        },
        {
          "internalType": "address",
          "name": "owner",
          "type": "address"
        }
      ],
      "name": "ERC721IncorrectOwner",
      "type": "error"
    },
    {
      "inputs": [
        {
          "internalType": "address",
          "name": "operator",
          "type": "address"
        },
        {
          "internalType": "uint256",
          "name": "tokenId",
          "type": "uint256"
        }
      ],
      "name": "ERC721InsufficientApproval",
      "type": "error"
    },
    {
      "inputs": [
        {
          "internalType": "address",
          "name": "approver",
          "type": "address"
        }
      ],
      "name": "ERC721InvalidApprover",
      "type": "error"
    },
    {
      "inputs": [
        {
          "internalType": "address",
          "name": "operator",
          "type": "address"
        }
      ],
      "name": "ERC721InvalidOperator",
      "type": "error"
    },
    {
      "inputs": [
        {
          "internalType": "address",
          "name": "owner",
          "type": "address"
        }
      ],
      "name": "ERC721InvalidOwner",
      "type": "error"
    },
    {
      "inputs": [
        {
          "internalType": "address",
          "name": "receiver",
          "type": "address"
        }
      ],
      "name": "ERC721InvalidReceiver",
      "type": "error"
    },
    {
      "inputs": [
        {
          "internalType": "address",
          "name": "sender",
          "type": "address"
        }
      ],
      "name": "ERC721InvalidSender",
      "type": "error"
    },
    {
      "inputs": [
        {
          "internalType": "uint256",
          "name": "tokenId",
          "type": "uint256"
        }
      ],
      "name": "ERC721NonexistentToken",
      "type": "error"
    },
    {
      "anonymous": false,
      "inputs": [
        {
          "indexed": true,
          "internalType": "address",
          "name": "owner",
          "type": "address"
        },
        {
          "indexed": true,
          "internalType": "address",
          "name": "approved",
          "type": "address"
        },
        {
          "indexed": true,
          "internalType": "uint256",
          "name": "tokenId",
          "type": "uint256"
        }
      ],
      "name": "Approval",
      "type": "event"
    },
    {
      "anonymous": false,
      "inputs": [
        {
          "indexed": true,
          "internalType": "address",
          "name": "owner",
          "type": "address"
        },
        {
          "indexed": true,
          "internalType": "address",
          "name": "operator",
          "type": "address"
        },
        {
          "indexed": false,
          "internalType": "bool",
          "name": "approved",
          "type": "bool"
        }
      ],
      "name": "ApprovalForAll",
      "type": "event"
    },
    {
      "anonymous": false,
      "inputs": [
        {
          "indexed": true,
          "internalType": "address",
          "name": "from",
          "type": "address"
        },
        {
          "indexed": true,
          "internalType": "address",
          "name": "to",
          "type": "address"
        },
        {
          "indexed": true,
          "internalType": "uint256",
          "name": "tokenId",
          "type": "uint256"
        }
      ],
      "name": "Transfer",
      "type": "event"
    },
    {
      "inputs": [
        {
          "internalType": "address",
          "name": "to",
          "type": "address"
        },
        {
          "internalType": "uint256",
          "name": "tokenId",
          "type": "uint256"
        }
      ],
      "name": "approve",
      "outputs": [],
      "stateMutability": "nonpayable",
      "type": "function"
    },
    {
      "inputs": [
        {
          "internalType": "address",
          "name": "owner",
          "type": "address"
        }
      ],
      "name": "balanceOf",
      "outputs": [
        {
          "internalType": "uint256",
          "name": "",
          "type": "uint256"
        }
      ],
      "stateMutability": "view",
      "type": "function"
    },
    {
      "inputs": [],
      "name": "claimNFT",
      "outputs": [],
      "stateMutability": "nonpayable",
      "type": "function"
    },
    {
      "inputs": [
        {
          "internalType": "uint256",
          "name": "tokenId",
          "type": "uint256"
        }
      ],
      "name": "getApproved",
      "outputs": [
        {
          "internalType": "address",
          "name": "",
          "type": "address"
        }
      ],
      "stateMutability": "view",
      "type": "function"
    },
    {
      "inputs": [
        {
          "internalType": "address",
          "name": "",
          "type": "address"
        }
      ],
      "name": "hasClaimed",
      "outputs": [
        {
          "internalType": "bool",
          "name": "",
          "type": "bool"
        }
      ],
      "stateMutability": "view",
      "type": "function"
    },
    {
      "inputs": [
        {
          "internalType": "address",
          "name": "",
          "type": "address"
        }
      ],
      "name": "hasSigned",
      "outputs": [
        {
          "internalType": "bool",
          "name": "",
          "type": "bool"
        }
      ],
      "stateMutability": "view",
      "type": "function"
    },
    {
      "inputs": [
        {
          "internalType": "address",
          "name": "owner",
          "type": "address"
        },
        {
          "internalType": "address",
          "name": "operator",
          "type": "address"
        }
      ],
      "name": "isApprovedForAll",
      "outputs": [
        {
          "internalType": "bool",
          "name": "",
          "type": "bool"
        }
      ],
      "stateMutability": "view",
      "type": "function"
    },
    {
      "inputs": [],
      "name": "name",
      "outputs": [
        {
          "internalType": "string",
          "name": "",
          "type": "string"
        }
      ],
      "stateMutability": "view",
      "type": "function"
    },
    {
      "inputs": [],
      "name": "nextTokenId",
      "outputs": [
        {
          "internalType": "uint256",
          "name": "",
          "type": "uint256"
        }
      ],
      "stateMutability": "view",
      "type": "function"
    },
    {
      "inputs": [
        {
          "internalType": "uint256",
          "name": "tokenId",
          "type": "uint256"
        }
      ],
      "name": "ownerOf",
      "outputs": [
        {
          "internalType": "address",
          "name": "",
          "type": "address"
        }
      ],
      "stateMutability": "view",
      "type": "function"
    },
    {
      "inputs": [
        {
          "internalType": "address",
          "name": "from",
          "type": "address"
        },
        {
          "internalType": "address",
          "name": "to",
          "type": "address"
        },
        {
          "internalType": "uint256",
          "name": "tokenId",
          "type": "uint256"
        }
      ],
      "name": "safeTransferFrom",
      "outputs": [],
      "stateMutability": "nonpayable",
      "type": "function"
    },
    {
      "inputs": [
        {
          "internalType": "address",
          "name": "from",
          "type": "address"
        },
        {
          "internalType": "address",
          "name": "to",
          "type": "address"
        },
        {
          "internalType": "uint256",
          "name": "tokenId",
          "type": "uint256"
        },
        {
          "internalType": "bytes",
          "name": "data",
          "type": "bytes"
        }
      ],
      "name": "safeTransferFrom",
      "outputs": [],
      "stateMutability": "nonpayable",
      "type": "function"
    },
    {
      "inputs": [
        {
          "internalType": "address",
          "name": "operator",
          "type": "address"
        },
        {
          "internalType": "bool",
          "name": "approved",
          "type": "bool"
        }
      ],
      "name": "setApprovalForAll",
      "outputs": [],
      "stateMutability": "nonpayable",
      "type": "function"
    },
    {
      "inputs": [],
      "name": "signDeclaration",
      "outputs": [],
      "stateMutability": "nonpayable",
      "type": "function"
    },
    {
      "inputs": [
        {
          "internalType": "bytes4",
          "name": "interfaceId",
          "type": "bytes4"
        }
      ],
      "name": "supportsInterface",
      "outputs": [
        {
          "internalType": "bool",
          "name": "",
          "type": "bool"
        }
      ],
      "stateMutability": "view",
      "type": "function"
    },
    {
      "inputs": [],
      "name": "symbol",
      "outputs": [
        {
          "internalType": "string",
          "name": "",
          "type": "string"
        }
      ],
      "stateMutability": "view",
      "type": "function"
    },
    {
      "inputs": [
        {
          "internalType": "uint256",
          "name": "tokenId",
          "type": "uint256"
        }
      ],
      "name": "tokenURI",
      "outputs": [
        {
          "internalType": "string",
          "name": "",
          "type": "string"
        }
      ],
      "stateMutability": "view",
      "type": "function"
    },
    {
      "inputs": [
        {
          "internalType": "address",
          "name": "from",
          "type": "address"
        },
        {
          "internalType": "address",
          "name": "to",
          "type": "address"
        },
        {
          "internalType": "uint256",
          "name": "tokenId",
          "type": "uint256"
        }
      ],
      "name": "transferFrom",
      "outputs": [],
      "stateMutability": "nonpayable",
      "type": "function"
    }
  ],
  "bytecode": "0x60806040523480156200001157600080fd5b5060405180604001604052806005815260200164135e53919560da1b815250604051806040016040528060048152602001631353919560e21b81525081600090816200005e919062000120565b5060016200006d828262000120565b5050600160065550620001ec565b634e487b7160e01b600052604160045260246000fd5b600181811c90821680620000a657607f821691505b602082108103620000c757634e487b7160e01b600052602260045260246000fd5b50919050565b601f8211156200011b57600081815260208120601f850160051c81016020861015620000f65750805b601f850160051c820191505b81811015620001175782815560010162000102565b5050505b505050565b81516001600160401b038111156200013c576200013c6200007b565b62000154816200014d845462000091565b84620000cd565b602080601f8311600181146200018c5760008415620001735750858301515b600019600386901b1c1916600185901b17855562000117565b600085815260208120601f198616915b82811015620001bd578886015182559484019460019091019084016200019c565b5085821015620001dc5787850151600019600388901b60f8161c191681555b5050505050600190811b01905550565b6111e980620001fc6000396000f3fe608060405234801561001057600080fd5b50600436106101165760003560e01c806373b2e80e116100a2578063b88d4fde11610071578063b88d4fde14610241578063bf6a141314610254578063c87b56dd14610277578063e985e9c51461028a578063fed7d2f81461029d57600080fd5b806373b2e80e146101fa57806375794a3c1461021d57806395d89b4114610226578063a22cb4651461022e57600080fd5b806323b872dd116100e957806323b872dd1461019857806342842e0e146101ab5780636352211e146101be578063672756ad146101d157806370a08231146101d957600080fd5b806301ffc9a71461011b57806306fdde0314610143578063081812fc14610158578063095ea7b314610183575b600080fd5b61012e610129366004610e32565b6102a5565b60405190151581526020015b60405180910390f35b61014b6102f7565b60405161013a9190610e9f565b61016b610166366004610eb2565b610389565b6040516001600160a01b03909116815260200161013a565b610196610191366004610ee7565b6103b2565b005b6101966101a6366004610f11565b6103c1565b6101966101b9366004610f11565b610451565b61016b6101cc366004610eb2565b610471565b61019661047c565b6101ec6101e7366004610f4d565b610584565b60405190815260200161013a565b61012e610208366004610f4d565b60086020526000908152604090205460ff1681565b6101ec60065481565b61014b6105cc565b61019661023c366004610f68565b6105db565b61019661024f366004610fba565b6105e6565b61012e610262366004610f4d565b60076020526000908152604090205460ff1681565b61014b610285366004610eb2565b6105fd565b61012e610298366004611096565b610697565b6101966106c5565b60006001600160e01b031982166380ac58cd60e01b14806102d657506001600160e01b03198216635b5e139f60e01b145b806102f157506301ffc9a760e01b6001600160e01b03198316145b92915050565b606060008054610306906110c9565b80601f0160208091040260200160405190810160405280929190818152602001828054610332906110c9565b801561037f5780601f106103545761010080835404028352916020019161037f565b820191906000526020600020905b81548152906001019060200180831161036257829003601f168201915b5050505050905090565b600061039482610741565b506000828152600460205260409020546001600160a01b03166102f1565b6103bd82823361077a565b5050565b6001600160a01b0382166103f057604051633250574960e11b8152600060048201526024015b60405180910390fd5b60006103fd838333610787565b9050836001600160a01b0316816001600160a01b03161461044b576040516364283d7b60e01b81526001600160a01b03808616600483015260248201849052821660448201526064016103e7565b50505050565b61046c838383604051806020016040528060008152506105e6565b505050565b60006102f182610741565b3360009081526007602052604090205460ff166104e75760405162461bcd60e51b815260206004820152602360248201527f5072696d65726f206465626573206669726d6172206c61206465636c6172616360448201526234b7b760e91b60648201526084016103e7565b3360009081526008602052604090205460ff16156105475760405162461bcd60e51b815260206004820152601760248201527f596120686173207265636c616d61646f207475204e465400000000000000000060448201526064016103e7565b61055333600654610880565b6006805490600061056383611103565b9091555050336000908152600860205260409020805460ff19166001179055565b60006001600160a01b0382166105b0576040516322718ad960e21b8152600060048201526024016103e7565b506001600160a01b031660009081526003602052604090205490565b606060018054610306906110c9565b6103bd33838361089a565b6105f18484846103c1565b61044b84848484610939565b606061060882610741565b50600061064560408051808201909152601f81527f68747470733a2f2f6170692e6d796e66742e636f6d2f6d657461646174612f00602082015290565b905060008151116106655760405180602001604052806000815250610690565b8061066f84610a62565b60405160200161068092919061112a565b6040516020818303038152906040525b9392505050565b6001600160a01b03918216600090815260056020908152604080832093909416825291909152205460ff1690565b3360009081526007602052604090205460ff16156107255760405162461bcd60e51b815260206004820152601d60248201527f596120686173206669726d61646f206c61206465636c61726163696f6e00000060448201526064016103e7565b336000908152600760205260409020805460ff19166001179055565b6000818152600260205260408120546001600160a01b0316806102f157604051637e27328960e01b8152600481018490526024016103e7565b61046c8383836001610af5565b6000828152600260205260408120546001600160a01b03908116908316156107b4576107b4818486610bfb565b6001600160a01b038116156107f2576107d1600085600080610af5565b6001600160a01b038116600090815260036020526040902080546000190190555b6001600160a01b03851615610821576001600160a01b0385166000908152600360205260409020805460010190555b60008481526002602052604080822080546001600160a01b0319166001600160a01b0389811691821790925591518793918516917fddf252ad1be2c89b69c2b068fc378daa952ba7f163c4a11628f55a4df523b3ef91a4949350505050565b6103bd828260405180602001604052806000815250610c5f565b6001600160a01b0382166108cc57604051630b61174360e31b81526001600160a01b03831660048201526024016103e7565b6001600160a01b03838116600081815260056020908152604080832094871680845294825291829020805460ff191686151590811790915591519182527f17307eab39ab6107e8899845ad3d59bd9653f200f220920489ca2b5937696c31910160405180910390a3505050565b6001600160a01b0383163b1561044b57604051630a85bd0160e11b81526001600160a01b0384169063150b7a029061097b903390889087908790600401611159565b6020604051808303816000875af19250505080156109b6575060408051601f3d908101601f191682019092526109b391810190611196565b60015b610a1f573d8080156109e4576040519150601f19603f3d011682016040523d82523d6000602084013e6109e9565b606091505b508051600003610a1757604051633250574960e11b81526001600160a01b03851660048201526024016103e7565b805181602001fd5b6001600160e01b03198116630a85bd0160e11b14610a5b57604051633250574960e11b81526001600160a01b03851660048201526024016103e7565b5050505050565b60606000610a6f83610c76565b600101905060008167ffffffffffffffff811115610a8f57610a8f610fa4565b6040519080825280601f01601f191660200182016040528015610ab9576020820181803683370190505b5090508181016020015b600019016f181899199a1a9b1b9c1cb0b131b232b360811b600a86061a8153600a8504945084610ac357509392505050565b8080610b0957506001600160a01b03821615155b15610bcb576000610b1984610741565b90506001600160a01b03831615801590610b455750826001600160a01b0316816001600160a01b031614155b8015610b585750610b568184610697565b155b15610b815760405163a9fbf51f60e01b81526001600160a01b03841660048201526024016103e7565b8115610bc95783856001600160a01b0316826001600160a01b03167f8c5be1e5ebec7d5bd14f71427d1e84f3dd0314c0f7b2291e5b200ac8c7c3b92560405160405180910390a45b505b5050600090815260046020526040902080546001600160a01b0319166001600160a01b0392909216919091179055565b610c06838383610d4e565b61046c576001600160a01b038316610c3457604051637e27328960e01b8152600481018290526024016103e7565b60405163177e802f60e01b81526001600160a01b0383166004820152602481018290526044016103e7565b610c698383610db4565b61046c6000848484610939565b60008072184f03e93ff9f4daa797ed6e38ed64bf6a1f0160401b8310610cb55772184f03e93ff9f4daa797ed6e38ed64bf6a1f0160401b830492506040015b6d04ee2d6d415b85acef81000000008310610ce1576d04ee2d6d415b85acef8100000000830492506020015b662386f26fc100008310610cff57662386f26fc10000830492506010015b6305f5e1008310610d17576305f5e100830492506008015b6127108310610d2b57612710830492506004015b60648310610d3d576064830492506002015b600a83106102f15760010192915050565b60006001600160a01b03831615801590610dac5750826001600160a01b0316846001600160a01b03161480610d885750610d888484610697565b80610dac57506000828152600460205260409020546001600160a01b038481169116145b949350505050565b6001600160a01b038216610dde57604051633250574960e11b8152600060048201526024016103e7565b6000610dec83836000610787565b90506001600160a01b0381161561046c576040516339e3563760e11b8152600060048201526024016103e7565b6001600160e01b031981168114610e2f57600080fd5b50565b600060208284031215610e4457600080fd5b813561069081610e19565b60005b83811015610e6a578181015183820152602001610e52565b50506000910152565b60008151808452610e8b816020860160208601610e4f565b601f01601f19169290920160200192915050565b6020815260006106906020830184610e73565b600060208284031215610ec457600080fd5b5035919050565b80356001600160a01b0381168114610ee257600080fd5b919050565b60008060408385031215610efa57600080fd5b610f0383610ecb565b946020939093013593505050565b600080600060608486031215610f2657600080fd5b610f2f84610ecb565b9250610f3d60208501610ecb565b9150604084013590509250925092565b600060208284031215610f5f57600080fd5b61069082610ecb565b60008060408385031215610f7b57600080fd5b610f8483610ecb565b915060208301358015158114610f9957600080fd5b809150509250929050565b634e487b7160e01b600052604160045260246000fd5b60008060008060808587031215610fd057600080fd5b610fd985610ecb565b9350610fe760208601610ecb565b925060408501359150606085013567ffffffffffffffff8082111561100b57600080fd5b818701915087601f83011261101f57600080fd5b81358181111561103157611031610fa4565b604051601f8201601f19908116603f0116810190838211818310171561105957611059610fa4565b816040528281528a602084870101111561107257600080fd5b82602086016020830137600060208483010152809550505050505092959194509250565b600080604083850312156110a957600080fd5b6110b283610ecb565b91506110c060208401610ecb565b90509250929050565b600181811c908216806110dd57607f821691505b6020821081036110fd57634e487b7160e01b600052602260045260246000fd5b50919050565b60006001820161112357634e487b7160e01b600052601160045260246000fd5b5060010190565b6000835161113c818460208801610e4f565b835190830190611150818360208801610e4f565b01949350505050565b6001600160a01b038581168252841660208201526040810183905260806060820181905260009061118c90830184610e73565b9695505050505050565b6000602082840312156111a857600080fd5b815161069081610e1956fea264697066735822122058765ca020cdf0283087ec7aa7e7ea6dfb2577dbb596960fd4b4aba97483ee2d64736f6c63430008140033",
  "linkReferences": {},
  "deployedLinkReferences": {}
}